{
	"_format": "hh-sol-artifact-1",
	"contractName": "PasswordFactory",
	"sourceName": "contracts/PasswordFactory.sol",
	"abi": [
		{
			"anonymous": false,
			"inputs": [
				{
					"indexed": true,
					"internalType": "address",
					"name": "previousOwner",
					"type": "address"
				},
				{
					"indexed": true,
					"internalType": "address",
					"name": "newOwner",
					"type": "address"
				}
			],
			"name": "OwnershipTransferred",
			"type": "event"
		},
		{
			"inputs": [],
			"name": "owner",
			"outputs": [
				{
					"internalType": "address",
					"name": "",
					"type": "address"
				}
			],
			"stateMutability": "view",
			"type": "function"
		},
		{
			"inputs": [
				{
					"internalType": "address",
					"name": "",
					"type": "address"
				},
				{
					"internalType": "uint256",
					"name": "",
					"type": "uint256"
				}
			],
			"name": "passwords",
			"outputs": [
				{
					"internalType": "bytes32",
					"name": "_passwordHash",
					"type": "bytes32"
				},
				{
					"internalType": "string",
					"name": "_hashId",
					"type": "string"
				}
			],
			"stateMutability": "view",
			"type": "function"
		},
		{
			"inputs": [],
			"name": "passwordsCount",
			"outputs": [
				{
					"internalType": "uint256",
					"name": "",
					"type": "uint256"
				}
			],
			"stateMutability": "view",
			"type": "function"
		},
		{
			"inputs": [],
			"name": "renounceOwnership",
			"outputs": [],
			"stateMutability": "nonpayable",
			"type": "function"
		},
		{
			"inputs": [
				{
					"internalType": "string",
					"name": "_passwordId",
					"type": "string"
				}
			],
			"name": "retreivePassword",
			"outputs": [
				{
					"internalType": "string",
					"name": "",
					"type": "string"
				}
			],
			"stateMutability": "view",
			"type": "function"
		},
		{
			"inputs": [
				{
					"internalType": "string",
					"name": "_hash",
					"type": "string"
				},
				{
					"internalType": "string",
					"name": "_id",
					"type": "string"
				}
			],
			"name": "storePassword",
			"outputs": [],
			"stateMutability": "nonpayable",
			"type": "function"
		},
		{
			"inputs": [
				{
					"internalType": "address",
					"name": "newOwner",
					"type": "address"
				}
			],
			"name": "transferOwnership",
			"outputs": [],
			"stateMutability": "nonpayable",
			"type": "function"
		}
	],
	"bytecode": "0x608060405234801561001057600080fd5b5061002d61002261003260201b60201c565b61003a60201b60201c565b6100fe565b600033905090565b60008060009054906101000a900473ffffffffffffffffffffffffffffffffffffffff169050816000806101000a81548173ffffffffffffffffffffffffffffffffffffffff021916908373ffffffffffffffffffffffffffffffffffffffff1602179055508173ffffffffffffffffffffffffffffffffffffffff168173ffffffffffffffffffffffffffffffffffffffff167f8be0079c531659141344cd1fd0a4f28419497f9722a3daafe3b4186f6b6457e060405160405180910390a35050565b6110e88061010d6000396000f3fe608060405234801561001057600080fd5b506004361061007d5760003560e01c8063715018a61161005b578063715018a6146100ec5780638da5cb5b146100f6578063d67814fd14610114578063f2fde38b146101455761007d565b806332c161a0146100825780633eedffd9146100a05780634ad09340146100bc575b600080fd5b61008a610161565b6040516100979190610888565b60405180910390f35b6100ba60048036038101906100b5919061091c565b610167565b005b6100d660048036038101906100d19190610ade565b6102a1565b6040516100e39190610baf565b60405180910390f35b6100f46104f8565b005b6100fe61050c565b60405161010b9190610c12565b60405180910390f35b61012e60048036038101906101299190610c85565b610535565b60405161013c929190610cde565b60405180910390f35b61015f600480360381019061015a9190610d0e565b6105fe565b005b60015481565b61016f610682565b600260003373ffffffffffffffffffffffffffffffffffffffff1673ffffffffffffffffffffffffffffffffffffffff168152602001908152602001600020604051806040016040528086866040516020016101cc929190610d6b565b6040516020818303038152906040526101e490610dc1565b815260200184848080601f016020809104026020016040519081016040528093929190818152602001838380828437600081840152601f19601f8201169050808301925050505050505081525090806001815401808255809150506001900390600052602060002090600202016000909190919091506000820151816000015560208201518160010190805190602001906102809291906107cc565b5050506001600081548092919061029690610e57565b919050555050505050565b60606102ab610682565b6000600260003373ffffffffffffffffffffffffffffffffffffffff1673ffffffffffffffffffffffffffffffffffffffff168152602001908152602001600020805480602002602001604051908101604052809291908181526020016000905b828210156103da57838290600052602060002090600202016040518060400160405290816000820154815260200160018201805461034990610ecf565b80601f016020809104026020016040519081016040528092919081815260200182805461037590610ecf565b80156103c25780601f10610397576101008083540402835291602001916103c2565b820191906000526020600020905b8154815290600101906020018083116103a557829003601f168201915b5050505050815250508152602001906001019061030c565b50505050905060006040518060400160405280600981526020017f6e6f7420666f756e640000000000000000000000000000000000000000000000815250905060005b6001548110156104ed57846040516020016104389190610f32565b6040516020818303038152906040528051906020012083828151811061046157610460610f49565b5b60200260200101516020015160405160200161047d9190610f32565b6040516020818303038152906040528051906020012014156104da578281815181106104ac576104ab610f49565b5b6020026020010151600001516040516020016104c89190610f99565b60405160208183030381529060405291505b80806104e590610e57565b91505061041d565b508092505050919050565b610500610682565b61050a6000610700565b565b60008060009054906101000a900473ffffffffffffffffffffffffffffffffffffffff16905090565b6002602052816000526040600020818154811061055157600080fd5b90600052602060002090600202016000915091505080600001549080600101805461057b90610ecf565b80601f01602080910402602001604051908101604052809291908181526020018280546105a790610ecf565b80156105f45780601f106105c9576101008083540402835291602001916105f4565b820191906000526020600020905b8154815290600101906020018083116105d757829003601f168201915b5050505050905082565b610606610682565b600073ffffffffffffffffffffffffffffffffffffffff168173ffffffffffffffffffffffffffffffffffffffff161415610676576040517f08c379a000000000000000000000000000000000000000000000000000000000815260040161066d90611026565b60405180910390fd5b61067f81610700565b50565b61068a6107c4565b73ffffffffffffffffffffffffffffffffffffffff166106a861050c565b73ffffffffffffffffffffffffffffffffffffffff16146106fe576040517f08c379a00000000000000000000000000000000000000000000000000000000081526004016106f590611092565b60405180910390fd5b565b60008060009054906101000a900473ffffffffffffffffffffffffffffffffffffffff169050816000806101000a81548173ffffffffffffffffffffffffffffffffffffffff021916908373ffffffffffffffffffffffffffffffffffffffff1602179055508173ffffffffffffffffffffffffffffffffffffffff168173ffffffffffffffffffffffffffffffffffffffff167f8be0079c531659141344cd1fd0a4f28419497f9722a3daafe3b4186f6b6457e060405160405180910390a35050565b600033905090565b8280546107d890610ecf565b90600052602060002090601f0160209004810192826107fa5760008555610841565b82601f1061081357805160ff1916838001178555610841565b82800160010185558215610841579182015b82811115610840578251825591602001919060010190610825565b5b50905061084e9190610852565b5090565b5b8082111561086b576000816000905550600101610853565b5090565b6000819050919050565b6108828161086f565b82525050565b600060208201905061089d6000830184610879565b92915050565b6000604051905090565b600080fd5b600080fd5b600080fd5b600080fd5b600080fd5b60008083601f8401126108dc576108db6108b7565b5b8235905067ffffffffffffffff8111156108f9576108f86108bc565b5b602083019150836001820283011115610915576109146108c1565b5b9250929050565b60008060008060408587031215610936576109356108ad565b5b600085013567ffffffffffffffff811115610954576109536108b2565b5b610960878288016108c6565b9450945050602085013567ffffffffffffffff811115610983576109826108b2565b5b61098f878288016108c6565b925092505092959194509250565b600080fd5b6000601f19601f8301169050919050565b7f4e487b7100000000000000000000000000000000000000000000000000000000600052604160045260246000fd5b6109eb826109a2565b810181811067ffffffffffffffff82111715610a0a57610a096109b3565b5b80604052505050565b6000610a1d6108a3565b9050610a2982826109e2565b919050565b600067ffffffffffffffff821115610a4957610a486109b3565b5b610a52826109a2565b9050602081019050919050565b82818337600083830152505050565b6000610a81610a7c84610a2e565b610a13565b905082815260208101848484011115610a9d57610a9c61099d565b5b610aa8848285610a5f565b509392505050565b600082601f830112610ac557610ac46108b7565b5b8135610ad5848260208601610a6e565b91505092915050565b600060208284031215610af457610af36108ad565b5b600082013567ffffffffffffffff811115610b1257610b116108b2565b5b610b1e84828501610ab0565b91505092915050565b600081519050919050565b600082825260208201905092915050565b60005b83811015610b61578082015181840152602081019050610b46565b83811115610b70576000848401525b50505050565b6000610b8182610b27565b610b8b8185610b32565b9350610b9b818560208601610b43565b610ba4816109a2565b840191505092915050565b60006020820190508181036000830152610bc98184610b76565b905092915050565b600073ffffffffffffffffffffffffffffffffffffffff82169050919050565b6000610bfc82610bd1565b9050919050565b610c0c81610bf1565b82525050565b6000602082019050610c276000830184610c03565b92915050565b610c3681610bf1565b8114610c4157600080fd5b50565b600081359050610c5381610c2d565b92915050565b610c628161086f565b8114610c6d57600080fd5b50565b600081359050610c7f81610c59565b92915050565b60008060408385031215610c9c57610c9b6108ad565b5b6000610caa85828601610c44565b9250506020610cbb85828601610c70565b9150509250929050565b6000819050919050565b610cd881610cc5565b82525050565b6000604082019050610cf36000830185610ccf565b8181036020830152610d058184610b76565b90509392505050565b600060208284031215610d2457610d236108ad565b5b6000610d3284828501610c44565b91505092915050565b600081905092915050565b6000610d528385610d3b565b9350610d5f838584610a5f565b82840190509392505050565b6000610d78828486610d46565b91508190509392505050565b600081519050919050565b6000819050602082019050919050565b6000610dab8251610cc5565b80915050919050565b600082821b905092915050565b6000610dcc82610d84565b82610dd684610d8f565b9050610de181610d9f565b92506020821015610e2157610e1c7fffffffffffffffffffffffffffffffffffffffffffffffffffffffffffffffff83602003600802610db4565b831692505b5050919050565b7f4e487b7100000000000000000000000000000000000000000000000000000000600052601160045260246000fd5b6000610e628261086f565b91507fffffffffffffffffffffffffffffffffffffffffffffffffffffffffffffffff821415610e9557610e94610e28565b5b600182019050919050565b7f4e487b7100000000000000000000000000000000000000000000000000000000600052602260045260246000fd5b60006002820490506001821680610ee757607f821691505b60208210811415610efb57610efa610ea0565b5b50919050565b6000610f0c82610b27565b610f168185610d3b565b9350610f26818560208601610b43565b80840191505092915050565b6000610f3e8284610f01565b915081905092915050565b7f4e487b7100000000000000000000000000000000000000000000000000000000600052603260045260246000fd5b6000819050919050565b610f93610f8e82610cc5565b610f78565b82525050565b6000610fa58284610f82565b60208201915081905092915050565b7f4f776e61626c653a206e6577206f776e657220697320746865207a65726f206160008201527f6464726573730000000000000000000000000000000000000000000000000000602082015250565b6000611010602683610b32565b915061101b82610fb4565b604082019050919050565b6000602082019050818103600083015261103f81611003565b9050919050565b7f4f776e61626c653a2063616c6c6572206973206e6f7420746865206f776e6572600082015250565b600061107c602083610b32565b915061108782611046565b602082019050919050565b600060208201905081810360008301526110ab8161106f565b905091905056fea26469706673582212202f20b90b807b6e822c9c80b3352588429dc81df3dc085ac6391e740d75755daa64736f6c63430008090033",
	"linkReferences": {},
	"deployedLinkReferences": {}
}