{
	"_format": "hh-sol-artifact-1",
	"contractName": "PasswordFactory",
	"sourceName": "contracts/PasswordFactory.sol",
	"abi": [
		{
			"anonymous": false,
			"inputs": [
				{
					"indexed": true,
					"internalType": "string",
					"name": "hashId",
					"type": "string"
				},
				{
					"indexed": true,
					"internalType": "bool",
					"name": "stored",
					"type": "bool"
				}
			],
			"name": "NewPassword",
			"type": "event"
		},
		{
			"anonymous": false,
			"inputs": [
				{
					"indexed": true,
					"internalType": "address",
					"name": "previousOwner",
					"type": "address"
				},
				{
					"indexed": true,
					"internalType": "address",
					"name": "newOwner",
					"type": "address"
				}
			],
			"name": "OwnershipTransferred",
			"type": "event"
		},
		{
			"inputs": [],
			"name": "owner",
			"outputs": [
				{
					"internalType": "address",
					"name": "",
					"type": "address"
				}
			],
			"stateMutability": "view",
			"type": "function"
		},
		{
			"inputs": [
				{
					"internalType": "address",
					"name": "",
					"type": "address"
				},
				{
					"internalType": "uint256",
					"name": "",
					"type": "uint256"
				}
			],
			"name": "passwords",
			"outputs": [
				{
					"internalType": "string",
					"name": "_passwordHash",
					"type": "string"
				},
				{
					"internalType": "string",
					"name": "_hashId",
					"type": "string"
				}
			],
			"stateMutability": "view",
			"type": "function"
		},
		{
			"inputs": [],
			"name": "passwordsCount",
			"outputs": [
				{
					"internalType": "uint256",
					"name": "",
					"type": "uint256"
				}
			],
			"stateMutability": "view",
			"type": "function"
		},
		{
			"inputs": [],
			"name": "renounceOwnership",
			"outputs": [],
			"stateMutability": "nonpayable",
			"type": "function"
		},
		{
			"inputs": [
				{
					"internalType": "string",
					"name": "_passwordId",
					"type": "string"
				}
			],
			"name": "retreivePassword",
			"outputs": [
				{
					"internalType": "string",
					"name": "",
					"type": "string"
				}
			],
			"stateMutability": "view",
			"type": "function"
		},
		{
			"inputs": [
				{
					"internalType": "string",
					"name": "_hash",
					"type": "string"
				},
				{
					"internalType": "string",
					"name": "_id",
					"type": "string"
				}
			],
			"name": "storePassword",
			"outputs": [
				{
					"internalType": "bool",
					"name": "",
					"type": "bool"
				}
			],
			"stateMutability": "nonpayable",
			"type": "function"
		},
		{
			"inputs": [
				{
					"internalType": "address",
					"name": "newOwner",
					"type": "address"
				}
			],
			"name": "transferOwnership",
			"outputs": [],
			"stateMutability": "nonpayable",
			"type": "function"
		}
	],
	"bytecode": "0x608060405234801561001057600080fd5b5061001a3361001f565b61006f565b600080546001600160a01b038381166001600160a01b0319831681178455604051919092169283917f8be0079c531659141344cd1fd0a4f28419497f9722a3daafe3b4186f6b6457e09190a35050565b610b4a8061007e6000396000f3fe608060405234801561001057600080fd5b506004361061007d5760003560e01c8063715018a61161005b578063715018a6146100e15780638da5cb5b146100eb578063d67814fd14610106578063f2fde38b1461012757600080fd5b806332c161a0146100825780633eedffd91461009e5780634ad09340146100c1575b600080fd5b61008b60015481565b6040519081526020015b60405180910390f35b6100b16100ac36600461083b565b61013a565b6040519015158152602001610095565b6100d46100cf3660046108bd565b61027c565b60405161009591906109ca565b6100e96104cc565b005b6000546040516001600160a01b039091168152602001610095565b6101196101143660046109fb565b6104e0565b604051610095929190610a25565b6100e9610135366004610a53565b610631565b60006101446106af565b3360009081526002602090815260409182902082516060601f89018490049093028101830184529283018781529092918291908990899081908501838280828437600092019190915250505090825250604080516020601f88018190048102820181019092528681529181019190879087908190840183828082843760009201829052509390945250508354600181018555938152602090819020835180519495600202909101936101fd935084929190910190610759565b5060208281015180516102169260018501920190610759565b50506001805490915081600061022b83610a6e565b91905055508015158484604051610243929190610a97565b604051908190038120907f95a6fde758092d4a0f10d2aad67d160652489fe39a29ba0dab10be40cb06b43190600090a395945050505050565b60606102866106af565b33600090815260026020908152604080832080548251818502810185019093528083529192909190849084015b8282101561040957838290600052602060002090600202016040518060400160405290816000820180546102e690610aa7565b80601f016020809104026020016040519081016040528092919081815260200182805461031290610aa7565b801561035f5780601f106103345761010080835404028352916020019161035f565b820191906000526020600020905b81548152906001019060200180831161034257829003601f168201915b5050505050815260200160018201805461037890610aa7565b80601f01602080910402602001604051908101604052809291908181526020018280546103a490610aa7565b80156103f15780601f106103c6576101008083540402835291602001916103f1565b820191906000526020600020905b8154815290600101906020018083116103d457829003601f168201915b505050505081525050815260200190600101906102b3565b505050509050606060005b6001548110156104c2578460405160200161042f9190610ae2565b6040516020818303038152906040528051906020012083828151811061045757610457610afe565b6020026020010151602001516040516020016104739190610ae2565b6040516020818303038152906040528051906020012014156104b0578281815181106104a1576104a1610afe565b60200260200101516000015191505b806104ba81610a6e565b915050610414565b509150505b919050565b6104d46106af565b6104de6000610709565b565b600260205281600052604060002081815481106104fc57600080fd5b90600052602060002090600202016000915091505080600001805461052090610aa7565b80601f016020809104026020016040519081016040528092919081815260200182805461054c90610aa7565b80156105995780601f1061056e57610100808354040283529160200191610599565b820191906000526020600020905b81548152906001019060200180831161057c57829003601f168201915b5050505050908060010180546105ae90610aa7565b80601f01602080910402602001604051908101604052809291908181526020018280546105da90610aa7565b80156106275780601f106105fc57610100808354040283529160200191610627565b820191906000526020600020905b81548152906001019060200180831161060a57829003601f168201915b5050505050905082565b6106396106af565b6001600160a01b0381166106a35760405162461bcd60e51b815260206004820152602660248201527f4f776e61626c653a206e6577206f776e657220697320746865207a65726f206160448201526564647265737360d01b60648201526084015b60405180910390fd5b6106ac81610709565b50565b6000546001600160a01b031633146104de5760405162461bcd60e51b815260206004820181905260248201527f4f776e61626c653a2063616c6c6572206973206e6f7420746865206f776e6572604482015260640161069a565b600080546001600160a01b038381166001600160a01b0319831681178455604051919092169283917f8be0079c531659141344cd1fd0a4f28419497f9722a3daafe3b4186f6b6457e09190a35050565b82805461076590610aa7565b90600052602060002090601f01602090048101928261078757600085556107cd565b82601f106107a057805160ff19168380011785556107cd565b828001600101855582156107cd579182015b828111156107cd5782518255916020019190600101906107b2565b506107d99291506107dd565b5090565b5b808211156107d957600081556001016107de565b60008083601f84011261080457600080fd5b50813567ffffffffffffffff81111561081c57600080fd5b60208301915083602082850101111561083457600080fd5b9250929050565b6000806000806040858703121561085157600080fd5b843567ffffffffffffffff8082111561086957600080fd5b610875888389016107f2565b9096509450602087013591508082111561088e57600080fd5b5061089b878288016107f2565b95989497509550505050565b634e487b7160e01b600052604160045260246000fd5b6000602082840312156108cf57600080fd5b813567ffffffffffffffff808211156108e757600080fd5b818401915084601f8301126108fb57600080fd5b81358181111561090d5761090d6108a7565b604051601f8201601f19908116603f01168101908382118183101715610935576109356108a7565b8160405282815287602084870101111561094e57600080fd5b826020860160208301376000928101602001929092525095945050505050565b60005b83811015610989578181015183820152602001610971565b83811115610998576000848401525b50505050565b600081518084526109b681602086016020860161096e565b601f01601f19169290920160200192915050565b6020815260006109dd602083018461099e565b9392505050565b80356001600160a01b03811681146104c757600080fd5b60008060408385031215610a0e57600080fd5b610a17836109e4565b946020939093013593505050565b604081526000610a38604083018561099e565b8281036020840152610a4a818561099e565b95945050505050565b600060208284031215610a6557600080fd5b6109dd826109e4565b6000600019821415610a9057634e487b7160e01b600052601160045260246000fd5b5060010190565b8183823760009101908152919050565b600181811c90821680610abb57607f821691505b60208210811415610adc57634e487b7160e01b600052602260045260246000fd5b50919050565b60008251610af481846020870161096e565b9190910192915050565b634e487b7160e01b600052603260045260246000fdfea2646970667358221220a9e4d0e493f700cdc6f5555ca486bc63834d4222c3c8deef7b5f3d19f18c898964736f6c63430008090033",
	"linkReferences": {},
	"deployedLinkReferences": {}
}